:0A0AB100000102020303040405051E
:10033300E4F513F512F511F510C203C200C202C2AF
:10034300011208B87E067F008E238F24752B067555
:100353002C1275210675221C752906752A55752DD3
:1003630006752E8EEE54C0700302043875140075A2
:1003730015808E168F17C374C09FFF74069ECF24FB
:1003830002CF3400FEE48F0F8E0EF50DF50CF50B46
:10039300F50AF509F508AF0FAE0EAD0DAC0CAB0BBE
:1003A300AA0AA909A808C3120A895037E517250B19
:1003B300F582E516350AF583E0FFE515250BF58291
:1003C300E514350AF583EFF0E4FAF9F8E50B2401B7
:1003D300F50BEA350AF50AE93509F509E83508F5B3
:1003E3000880B385142385152474002480FF7406C4
:1003F30034FFFEC3E52C9FF52CE52B9EF52BC3E5BF
:10040300269FF526E5259EF525C3E5289FF528E5D6
:10041300279EF527C3E5229FF522E5219EF521C3FB
:10042300E52A9FF52AE5299EF529C3E52E9FF52E9A
:10043300E52D9EF52DD2E843D82090E668E04409E7
:10044300F090E65CE0443DF0D2AF90E680E020E13E
:1004530005D20412093990E680E054F7F0538EF880
:10046300C2031205A0300105120080C2013003F25D
:100473001207FD50EDC2031209E420001690E68234
:10048300E030E704E020E1EF90E682E030E604E0CC
:0B04930020E0E4120968120AC780C7CD
:01049E00223B
:0B0AA60090E50DE030E402C322D322F3
:1000800090E6B9E0700302016B14700302021424BD
:10009000FE70030202AA24FB7003020165147003C0
:1000A00002015F147003020153147003020159240A
:1000B00005600302031F120AC9400302032B90E6E6
:1000C000BBE024FE603B14605624FD6016146040C3
:1000D00024067075E52390E6B3F0E52490E6B4F0CD
:1000E00002032B120AA6500FE52B90E6B3F0E52C85
:1000F00090E6B4F002032B90E6A0E04401F0020386
:100100002BE52590E6B3F0E52690E6B4F002032B4C
:10011000E52790E6B3F0E52890E6B4F002032B90D3
:10012000E6BAE0FF120994AA06A9077B01EA494B47
:10013000600DEE90E6B3F0EF90E6B4F002032B9082
:10014000E6A0E04401F002032B90E6A0E04401F0B9
:1001500002032B120A7702032B12049F02032B12B5
:100160000ABB02032B120A6502032B120ACB4003BF
:1001700002032B90E6B8E0247F602B14603C24023D
:10018000600302020AA200E433FF25E0FFA202E4BA
:10019000334F90E740F0E4A3F090E68AF090E68BCE
:1001A0007402F002032BE490E740F0A3F090E68A9B
:1001B000F090E68B7402F002032B90E6BCE0547ED4
:1001C000FF7E00E0D3948040067C007D0180047CAB
:1001D000007D00EC4EFEED4F24B1F582740A3EF531
:1001E00083E493FF3395E0FEEF24A1FFEE34E68F26
:1001F00082F583E0540190E740F0E4A3F090E68AB2
:10020000F090E68B7402F002032B90E6A0E044012C
:10021000F002032B120ACD400302032B90E6B8E054
:1002200024FE601D2402600302032B90E6BAE0B4B2
:100230000105C20002032B90E6A0E04401F0020396
:100240002B90E6BAE0705990E6BCE0547EFF7E0049
:10025000E0D3948040067C007D0180047C007D001A
:10026000EC4EFEED4F24B1F582740A3EF583E49323
:10027000FF3395E0FEEF24A1FFEE34E68F82F58395
:10028000E054FEF090E6BCE05480FF131313541FBB
:10029000FFE0540F2F90E683F0E04420F002032BA0
:1002A00090E6A0E04401F002032B120ACF507C90AC
:1002B000E6B8E024FE60202402705B90E6BAE0B469
:1002C0000104D200806590E6BAE06402605D90E6C9
:1002D000A0E04401F0805490E6BCE0547EFF7E0034
:1002E000E0D3948040067C007D0180047C007D008A
:1002F000EC4EFEED4F24B1F582740A3EF583E49393
:10030000FF3395E0FEEF24A1FFEE34E68F82F58304
:10031000E04401F0801590E6A0E04401F0800C126A
:100320000AD1500790E6A0E04401F090E6A0E04436
:0203300080F05B
:0103320022A8
:03003300020AC3FB
:040AC30053D8EF32E3
:1008B80090E600E054E74410F0E4F51B90E60B7472
:1008C80003F0000000E490E615F090E614F090E6DE
:1008D80013F090E612F090E611F090E610F00000A8
:1008E8000090E60174C8F000000090E65CE0440265
:0408F800F0D2002218
:1005A000E51B64017059E51A14601A14601E2402D8
:1005B000704D438008051CE51CD394194041E4F5B7
:1005C0001C751A01225380F7751A0222E58030E06B
:1005D00013E58030E607E58054BFFF8005E58044E1
:1005E00040FF8F80E58030E007E58054FEFF800506
:1005F000E5804401FF8F80E58030E703751A032210
:0207FD00D32205
:020AC700D32238
:020AC900D32236
:080ABB0090E6BAE0F51DD3221C
:100A650090E740E51DF0E490E68AF090E68B04F00F
:020A7500D3228A
:10049F0090E6BAE0F51B24FE605A04600302056D76
:1004AF00E4F51AF51C90E601E054FCF0000000E4BE
:1004BF0090E670F075800875B24990E61074A0F060
:1004CF0090E611F090E612E0547FF090E613E054BE
:1004DF007FF090E614E0547FF090E615E0547FF043
:1004EF0090E68D7440F090E65EE04408F0E044043E
:1004FF00F002059E90E65EE054F3F090E601E054C2
:10050F00FC4403F000000090E61274D8F0000000E5
:10051F00E490E615F090E614F090E613F090E610F4
:10052F00F090E611F000000090E6047480F00000F7
:10053F00007402F0000000E4F000000090E6187470
:10054F000DF000000090E6207404F0000000E4902D
:10055F00E621F000000090E6407483F0803190E6D1
:10056F005EE054F3F090E611E0547FF090E610E077
:10057F00547FF090E612E0547FF090E613E0547F42
:10058F00F090E614E0547FF090E615E0547FF0D33E
:01059F002239
:100A770090E740E51BF0E490E68AF090E68B04F0FF
:020A8700D32278
:020ACB00D32234
:020ACD00D32232
:020ACF00D32230
:020AD100D3222E
:100A0900C0E0C083C082D2015391EF90E65D7401CA
:080A1900F0D082D083D0E0325E
:100A3900C0E0C083C0825391EF90E65D7404F0D0AA
:060A490082D083D0E032F0
:100A4F00C0E0C083C0825391EF90E65D7402F0D096
:060A5F0082D083D0E032DA
:1007C700C0E0C083C082852925852A2685268285A3
:1007D7002583A37402F08521278522288528828511
:1007E7002783A37407F05391EF90E65D7410F0D060
:0607F70082D083D0E03245
:100A2100C0E0C083C082D2035391EF90E65D7408A9
:080A3100F0D082D083D0E03246
:1008FC00C0E0C083C08290E680E030E720852125EF
:10090C00852226852682852583A37402F0852927D6
:10091C00852A28852882852783A37407F05391EFB5
:0D092C0090E65D7420F0D082D083D0E032E0
:0107FF0032C7
:010AD30032F0
:010AD40032EF
:010AD50032EE
:1009BF00C0E0C083C082C0D0E51BB4010690E68DB5
:1009CF007440F05391EF90E65F7404F0D0D0D08272
:0509DF00D083D0E032DE
:1006C200C0E0C083C082C0D075D000C000C002C0EC
:0906D20003C004C005C006C00706
:1006DB00E51B64016003020761FD90E68DE0FFED11
:1006EB00C39F5045E4FC5380FE74802DF582E434A7
:1006FB00E7F583E0FB7A0074807E00A8040880068F
:10070B00CEA2E713CE13D8F8FFEE5AFEEF5B4E6086
:10071B0007E5804440FF8005E58054BFFF8F804391
:10072B0080010CBC08C00D80B190E6A2E020E12650
:10073B00E58030E1047F0180027F0090E7C0EFF09D
:10074B00E58030E7047F0180027F0090E7C1EFF086
:0F075B0090E68F7402F05391EF90E65F7408F010
:10076A00D007D006D005D004D003D002D000D0D014
:07077A00D082D083D0E032F1
:010AD60032ED
:010AD70032EC
:010AD80032EB
:010AD90032EA
:010ADA0032E9
:010ADB0032E8
:010ADC0032E7
:010ADD0032E6
:010ADE0032E5
:010ADF0032E4
:010AE00032E3
:010AE10032E2
:010AE20032E1
:010AE30032E0
:010AE40032DF
:010AE50032DE
:010AE60032DD
:010AE70032DC
:010AE80032DB
:010AE90032DA
:010AEA0032D9
:010AEB0032D8
:010AEC0032D7
:010AED0032D6
:010AEE0032D5
:010AEF0032D4
:010AF00032D3
:010AF10032D2
:010AF20032D1
:010AF30032D0
:1006000012010002FFFFFF406666010000000102C8
:1006100000010A060002FFFFFF4001000902390045
:1006200001010040320904000000FFFFFF0009043F
:10063000000102FFFFFF000705010200020007059D
:1006400081020002000904000201FFFFFF0007050C
:10065000820100140109023900010100403209043D
:10066000000000FFFFFF000904000102FFFFFF0080
:10067000070501024000000705810240000009044F
:10068000000201FFFFFF0007058201004001040393
:10069000090422034300680072006900730020000F
:1006A0004800690073007A00700061006E007300FA
:1006B0006B0069000C0353006F00520041004400BE
:0206C000000038
:1009680090E682E030E004E020E60B90E682E0309A
:10097800E119E030E71590E680E04401F07F147E4D
:0C0988000012078190E680E054FEF0228F
:1009390030040990E680E0440AF0800790E680E000
:100949004408F07FDC7E0512078190E65D74FFF0B4
:0F09590090E65FF05391EF90E680E054F7F022C4
:02099400A907B1
:10099600AE2DAF2E8F828E83A3E064037017AD0158
:1009A60019ED7001228F828E83E07C002FFDEC3ED4
:0809B600FEAF0580DFE4FEFF47
:0109BE002216
:1009E40090E682E044C0F090E681F0438701000085
:0409F40000000022DD
:100781008E188F1990E600E054187012E5192401B3
:10079100FFE43518C313F518EF13F519801590E62A
:1007A10000E05418FFBF100BE51925E0F519E51815
:1007B10033F518E5191519AE18700215184E6005B4
:0607C1001209F880EE228F
:1009F8007400F58690FDA57C05A3E582458370F912
:010A080022CB
:03004300020800B0
:03005300020800A0
:10080000020A0900020A4F00020A3900020A210006
:100810000207C7000208FC000207FF00020AD3001B
:10082000020AD400020AD5000209BF000206C20073
:10083000020AD600020AD700020AD800020AD9002A
:10084000020ADA00020AD300020ADB00020ADC0014
:10085000020ADD00020ADE00020ADF00020AE000EE
:10086000020AE100020AD300020AD300020AD300FE
:10087000020AE200020AE300020AE400020AE500BA
:10088000020AE600020AE700020AE800020AE9009A
:10089000020AEA00020AEB00020AEC00020AED007A
:1008A000020AEE00020AEF00020AF000020AF1005A
:0808B000020AF200020AF30043
:03000000020A9A57
:0C0A9A00787FE4F6D8FD75812E0203334E
:100A8900EB9FF5F0EA9E42F0E99D42F0E89C45F0C3
:010A9900223A
:00000001FF
