:040000000201BB320C
:01000B0032C2
:0100130032BA
:01001B0032B2
:0100230032AA
:01002B0032A2
:0300330002030EB7
:01003B003292
:01004300328A
:01004B003282
:01005300327A
:01005B003272
:01006300326A
:03006B000203117C
:030073000205F192
:03007B000205F289
:030083000203BFB6
:03008B0002032944
:03009300020374F1
:03009B000205F368
:0300A3000205F45F
:0300AB000205F556
:0300B3000205F64D
:0300BB0002061D1D
:0300C3000206D75B
:0300CB000206D852
:0300D3000206D949
:0300DB000206DA40
:0300E3000206DB37
:0300EB000206DC2E
:0300F3000206DD25
:0300FB000206DE1C
:030103000206DF12
:03010B000206E009
:030113000206E100
:03011B000206E2F7
:030123000206E3EE
:03012B000206E4E5
:030133000206E5DC
:03013B000206E6D3
:030143000206E7CA
:03014B000206E8C1
:030153000206E9B8
:03015B000206EAAF
:030163000206EBA6
:03016B000206EC9D
:030173000206ED94
:03017B000206EE8B
:030183000206EF82
:03018B000206F079
:030193000206F170
:03019B000206F267
:0301A3000206F35E
:0301AB000206F455
:0301B3000206F54C
:04021400C200C20161
:03022A000201B618
:0501B60012022D80FE85
:0C022D00120514E500D2E890E668E044F9
:0E02390008F090E65CE04401F090E65CE044E2
:0E02470010F090E65CE04420F090E65CE044AD
:0E02550008F0D2DDD2AF90E680E0FA20E1158D
:0E02630090E680E0440AF09005DC120AE1907B
:07027100E680E0FA54F7F00B
:08027800120541100002800391
:030280001206F66D
:0502830010010280F0F3
:0E02880090E682E0FA44C0F090E6817401F046
:0C02960043870100000000000000E50AA2
:0E02A200702690E682E0FA30E60B90E682E0ED
:0702B000FA30E003020288AE
:0E02B70090E682E0FA30E70B90E682E0FA3043
:0502C500E103020288C4
:0E02CA0090E682E0FA30E60890E682E0FA2044
:0202D800E0162E
:0B02DA0090E682E0FA20E703020278C1
:0B02E50090E682E0FA20E103020278BC
:0E02F000900005120AE190E680E04401F090D3
:0E02FE00000F120AE190E680E0FA54FEF002D2
:02030C00027875
:03030E00C2DC321C
:0C031100C0E0C082C083D2005391EF9086
:0C031D00E65D7401F0D083D082D0E032A5
:0C032900C021C0E0C0F0C082C083C00250
:0E033500C003C004C005C006C007C000C00160
:0E034300C0D075D0007582001209CC5391EF26
:0E03510090E65D7410F0D0D0D001D000D0073F
:0E035F00D006D005D004D003D002D083D082C7
:07036D00D0F0D0E0D02132F6
:0C037400C021C0E0C0F0C082C083C00205
:0E038000C003C004C005C006C007C000C00115
:0E038E00C0D075D0007582011209CC5391EFDA
:0E039C0090E65D7420F0D0D0D001D000D007E4
:0E03AA00D006D005D004D003D002D083D0827C
:0703B800D0F0D0E0D02132AB
:0C03BF00C0E0C082C083D2015391EF90D7
:0C03CB00E65D7408F0D083D082D0E032F0
:0503D700AA0FAB10AC01
:0C03DC0011903201E08A828B838CF012B9
:0603E8000AC87582012223
:0B03EE00AA82903200EAF0903201E594
:0903F9000FF0E0FA600302045D5C
:0E04020090E601E0FA54FCF000000090E67075
:0E041000E4F075800875B24990E61074A0F013
:0E041E0090E61174A0F090E612E0547FF0908A
:0E042C00E613E0547FF090E614E0547FF09069
:0D043A00E615E0547FF090E68D7440F090E0
:0E044700E65EE04408F090E65EE0FA4404F061
:08045500903202E4F0020504FC
:0A045D00903201E0FABA01028003B8
:0304670002050487
:0E046A0090E601E0FA74FC5A90E601F5F07499
:0E0478000345F0F000000090E61074A0F000C4
:0E048600000090E61174A0F000000090E61255
:0E04940074E2F000000090E613E0FA547FF0EE
:0E04A20000000090E614E0FA547FF000000025
:0E04B00090E615E0FA547FF000000090E68D13
:0E04BE007440F000000090E65EE04408F0900C
:0E04CC00E65EE0FA4404F090E6047480F0006E
:0E04DA00000090E6047402F000000090E604BA
:0E04E800E4F090E618740DF000000090E6209D
:0E04F6007402F000000090E621E4F000000027
:0405040075820122D9
:0405080075820122D5
:04050C0075820122D1
:0405100075820022CE
:0E05140090E600E0FA74E75A90E600F5F07405
:0E0522001045F0F090E60B7403F0000000901E
:0C053000E60174C8F0000000750F0075B3
:05053C0082000203EE45
:0A054100903201E0FA60030205ECBD
:0C054B00903202E0FA24FB50030205E6A7
:07055700EA2A2A90055E73F9
:07055E0002056D02057C029D
:06056500059202059C0254
:02056B0005D3B6
:0E056D00438008903203E4F09032027401F0F3
:01057B00225D
:0E057C00903203E0FA90320304F0EA24E650D5
:08058A00659032027402F022B8
:0A0592005380F79032027403F02248
:0E059C00E58030E013E58030E607AA805302C8
:0305AA00BF80050A
:0505AD0074404580FAD6
:0205B2008A803D
:0C05B400E58030E007AA805302FE8005BD
:0505C00074014580FA02
:0E05C5008A80E58030E7249032027404F02230
:0C05D300E58030E118E58020E713750F8B
:0705DF00017582000203EE2A
:0605E600903202E4F02255
:0405EC00903201E068
:0105F00022E8
:0105F10032D7
:0105F20032D6
:0105F30032D5
:0105F40032D4
:0105F50032D3
:0E05F600C0E0C082C083C002903201E0FA7003
:070604000690E68D7440F042
:0E060B005391EF90E65F7404F0D002D083D0DC
:0406190082D0E03279
:0E061D00C0E0C0F0C082C083C002C003C004B1
:0E062B00C005C0D075D000903201E0FA600327
:030639000206B7FF
:02063C007A0042
:0C063E0090E68DE0FBC3EA9B503F7B0080
:03064A00BB0800EA
:0E064D0050355380FEEA2480F582E434E7F550
:0B065B0083E0FC8BF005F0748080024F
:02066600C313BC
:0E066800D5F0FBFD5C600774404580FC800609
:06067600AD8074BF5DFCC5
:08067C008C804380010B80C655
:030684000A80B732
:0E06870090E6A2E0FA20E12CE58030E1047A52
:03069500018002DF
:020698007A00E6
:0E069A0090E7C0EAF0E58030E7047A018002C4
:0206A8007A00D6
:0D06AA0090E7C1EAF090E68F7402F0800442
:0406B700903201E09C
:0E06BB005391EF90E65F7408F0D0D0D005D0D8
:0E06C90004D003D002D083D082D0F0D0E03233
:0106D70032F0
:0106D80032EF
:0106D90032EE
:0106DA0032ED
:0106DB0032EC
:0106DC0032EB
:0106DD0032EA
:0106DE0032E9
:0106DF0032E8
:0106E00032E7
:0106E10032E6
:0106E20032E5
:0106E30032E4
:0106E40032E3
:0106E50032E2
:0106E60032E1
:0106E70032E0
:0106E80032DF
:0106E90032DE
:0106EA0032DD
:0106EB0032DC
:0106EC0032DB
:0106ED0032DA
:0106EE0032D9
:0106EF0032D8
:0106F00032D7
:0106F10032D6
:0106F20032D5
:0106F30032D4
:0106F40032D3
:0106F50032D2
:0E2E000012010002FFFFFF40666601000100A4
:042E0E0001020001BC
:0A2E12000A060002FFFFFF40010066
:092E1C0009023E0001010080FAE8
:0E2E25000904000002FFFFFF00070501020084
:0E2E33000200070581020002000904000103ED
:0E2E4100FFFFFF0007050102000200070581E8
:0B2E4F000200020007058202000200E2
:092E5A0009023E0001010080FAAA
:0E2E63000904000002FFFFFF00070501024006
:0E2E7100000007058102400000090400010373
:0E2E7F00FFFFFF00070501024000000705816C
:0B2E8D00024000000705820240000028
:042E98000403090422
:0E2E9C001C0341006C00700068006100200003
:0E2EAA00440065007600690063006500730057
:0C2EB8000C03530061006B006500650016
:022EC40000000C
:0601EA00E478FFF6D8FDE9
:0801C8007900E94400601B7A94
:0501D00000900B5778C0
:0301D5000475921C
:0A01D80032E493F2A308B800020518
:0801E20092D9F4DAF27592FFE4
:07021800750900750A00756D
:03021F000B5A7502
:030222000C2E752A
:030225000D1C7538
:020228000E2E98
:0C06F60090E6B9E0FA24F450030207F685
:07070200EA2A2A900709739F
:0707090002072D0207420266
:0607100007F60207570284
:0607160007F60207F602DF
:06071C00076C0207F60263
:06072200077202078A02C3
:0507280007A40207D840
:0A072D0012086AE582600302080B5F
:0B07370090E6A0E0FA4401F002080B7D
:0A0742001208F6E582600302080BBE
:0B074C0090E6A0E0FA4401F002080B68
:0A075700120944E582600302080B5A
:0B07610090E6A0E0FA4401F002080B53
:06076C001209F702080B60
:0E077200120508AA8290E740EAF090E68AE4B9
:0A078000F090E68B7401F002080B04
:0E078A0090E6BAE0F58212050CE582600302EB
:02079800080B4C
:0A079A0090E6A0E0FA4401F0806749
:0907A40090E6BCE0FA750F08753F
:0807AD0010007511408A821250
:0E07B50003D7E582700A90E6A0E0FA4401F056
:0207C30080466E
:0C07C50090E740E508F090E68AE4F09030
:0707D100E68B7401F0803398
:0C07D80090E6BCE0FA90E6BAE0F50F8A6B
:0E07E400821203EEE582701F90E6A0E0FA4458
:0407F20001F080157D
:0E07F60090E6B9E0F582120510E582700890D9
:07080400E6A0E0FA4401F058
:08080B0090E6A0E04480F02219
:0E081300AA82747F5AFB24F74049EB2B2B90EE
:0308210008247335
:0708240002083F0208430235
:06082B00085602086602F7
:06083100085A02086602ED
:06083700085E02086602E3
:02083D0008624F
:04083F0090E6A0227D
:0A084300EA30E7067AA27BE68004A3
:04084D007AA17BE62B
:050851008A828B832266
:0408560090E6A32263
:04085A0090E6A4225E
:04085E0090E6A52259
:0408620090E6A62254
:0408660090000022DC
:0A086A0090E6B8E0FABA800280229E
:05087400BA81028008BA
:05087900BA8202803785
:03087E000208EE7F
:0E08810090E740E4F090E741F090E68AF090B6
:07088F00E68B7402F0805CAF
:0A089600E50A25E0FAE509420290A8
:0E08A000E740EAF090E741E4F090E68AF0903D
:0708AE00E68B7402F0803DAF
:0E08B50090E6BCE0F582120813AA82AB83EA3B
:0608C3004B7003F58222D8
:0D08C9008A828B83E0FA30E0047A0180021D
:0208D6007A00A6
:0E08D80090E740EAF090E741E4F090E68AF005
:0808E60090E68B7402F080041F
:0408EE0075820022ED
:0408F20075820122E8
:0C08F60090E6B8E0FA6005BA0237801105
:0C09020090E6BAE0FABA0105750A008020
:01090E0031B7
:04090F0075820022CB
:0D09130090E6BAE0701A90E6BCE0F58212A2
:0E0920000813AA82AB83E0FC5304FE8A828B8C
:05092E0083ECF0800DD8
:0409330075820022A7
:0909370090E6B9E0F5820205101A
:040940007582012299
:0C09440090E6B8E0FA6008BA0202801FDA
:030950000209BFDA
:0B09530090E6BAE0FABA02030209C8FD
:0C095E0090E6BAE0FABA0105750A0180C3
:01096A005D2F
:04096B00758200226F
:0D096F0090E6BAE0704690E6BCE0F582121A
:0D097C000813AA82AB83EA4B7003F58222B8
:0E0989008A828B83E0FC4304018A828B83EC1C
:0E099700F090E6BCE0FA53020F90E6BCE0548C
:0D09A50080C423541FFB90E683EB2AF090E2
:0909B200E683E0FA4420F0800D18
:0409BB00758200221F
:0909BF0090E6B9E0F58202051092
:0409C8007582012211
:0909CC00AA82D20210AF02C2029D
:0709D500EA600E750B1C75B2
:0309DC000C2E7569
:0309DF000D5A7539
:0409E2000E2E800C49
:0409E600750B5A75BE
:0309EA000C2E755B
:0309ED000D1C7569
:0209F0000E2EC9
:0509F200A20292AF22F9
:0A09F70090E6BBE0FABA0102801995
:050A0100BA020280278B
:050A0600BA030280307C
:060A0B00BA0603020A9F77
:060A1100BA0703020AB25D
:030A1700020AC010
:0A0A1A007A007B2E90E6B3EBF07A31
:090A2400007B2E90E6B4EAF022FA
:090A2D0090E6B3E50CF0AA0B9071
:050A3600E6B4EAF02225
:0A0A3B007A987B2E7C8090E6BAE0EA
:030A4500FD7E0033
:090A48008E070EEDB507028036A1
:0E0A51008A828B838CF0120B372AFAE43BFB6F
:0E0A5F0074012AFFE43BF88C018F82888389A2
:0A0A6D00F0120B37FFBF03028006F2
:060A77007A007B007C0008
:0A0A7D00EA4B4C6005C3ED9E50C12A
:0E0A8700EA4B4C600B90E6B3EBF090E6B4EA5D
:020A9500F0224D
:080A970090E6A0E04401F0220A
:0A0A9F007A127B2E90E6B3EBF07A9A
:090AA900127B2E90E6B4EAF02263
:090AB20090E6B3E50EF0AA0D90E8
:050ABB00E6B4EAF022A0
:080AC00090E6A0E04401F022E1
:0E0AC80020F71030F6118883A88220F507F67B
:050AD600A883758300F8
:010ADB0022F8
:030ADC00F280F7AE
:020ADF00F02203
:0300430002300088
:0300530002300078
:09300000020311000205F10002B7
:0830090005F2000203BF000202
:08301100032900020374000210
:0830190005F3000206E70002C6
:0830210005F4000205F50002B0
:0830290005F60002061D00027D
:0830310006D7000206D80002D8
:0830390006D9000206DA0002CC
:0830410006DB000206E70002B5
:0830490006DC000206DD0002B6
:0830510006DE000206DF0002AA
:0830590006E0000206E100029E
:0830610006E2000206E700028E
:0830690006E7000206E7000281
:0830710006E3000206E4000280
:0830790006E5000206E6000274
:0830810006E8000206E9000266
:0830890006EA000206EB00025A
:0830910006EC000206ED00024E
:0830990006EE000206EF000242
:0830A10006F0000206F1000236
:0830A90006F2000206F300022A
:0730B10006F4000206F50021
:0801F0007800E84400600A7980
:0301F800007592FD
:0601FB0032E4F309D8FC18
:080201007804E84400600C7968
:0B02090001903200E4F0A3D8FCD9FA09
:0E0AE100AA82AB8390E600E05418C423541F91
:040AEF00FCB4010052
:0B0AF300E433FC60067CB17D00801C39
:0E0AFE0090E600E05418C423541FFEBE01060B
:060B0C007E617F01800400
:040B12007EC27F021E
:040B16008E048F05B5
:040B1A008C0F8D109F
:080B1E00150F74FFB50F02155D
:010B260010BE
:0A0B2700E50F451070F11ABAFF0146
:010B31001BA8
:050B3200EA4B70E42213
:0301BB007581212A
:0A01BE00120B53E58260030201B644
:0E0B370020F71430F6148883A88220F507E614
:060B4500A8837583002265
:030B4B00E280F74E
:030B4E00E493220B
:020B5100E022A0
:040B53007582002285
:00000001FF
