:100000000200B3028003000000000002800B000029
:10001000000000028013000000000002801B0000AE
:10002000000000020B8D000000000002802B000089
:10003000000000028033000000000002803B00004E
:10004000000000028043000000000002804B00001E
:10005000000000028053000000000002805B0000EE
:10006000000000028063000000000002806B0000BE
:10007000000000028073000000000002807B00008E
:10008000000000028083000000000002808B00005E
:10009000000000028093000000000002809B00002E
:1000A0000000000280A300000000000280AB0000FE
:1000B000000000120100901100E0B40021907F9533
:1000C000E044C3F0907F94E0F0907FAFE054F144BF
:1000D0000AF0907FB27400F0A374FDF0801C90E6EB
:1000E00005E054F1440AF090E6067400F0A374FDB4
:1000F000F090E600E054E74410F0020121020555BB
:1001000090E668E0FF74FFF0E0B40B09EFF09011A7
:10011000007401F02290E668EFF09011007400F096
:0101200022BC
:1001210075860075C83475CBFF75CAD975985A02A2
:1001310000FDA29822A29922E59922F59922C2995D
:1001410022D29922C29822C2AC22D2AC22F022C081
:1001510084C085C082C083C0E0901100E0B4001368
:10016100907FAFE04408F0907FB27401F0A37493E4
:10017100F0801190E605E04408F090E6067401F085
:10018100A37493F0D0E0D083D082D085D0842200B4
:0301910000002249
:1005510056332E30758107901109E47806F0A3D83F
:10056100FC7480F0A37400F0A37407F0A3E4F0F529
:100571002304F524901101790078A51205D278336E
:100581001205D278CC1205D2E960107A0B7D0012E7
:100591000CA2E4F530F531901108F01203A912090B
:1005A1009FB4110AE523120993F4F52380F0B401F5
:1005B10007E52412099380E61205BE80E1F52514B2
:1005C10014540E9009CFFF93CFA3938F83F582E448
:1005D10073E4936849F9E8F0A3227406120993E5DC
:1005E100281209939011047804E493120993A3D873
:1005F100F87404120993227528001209ABF52660DC
:10060100271209ABF5831209ABF5821209ABF52765
:100611001209AB1209DFA3D527F61209ABE5256054
:10062100037528021205DB221209AB90110FF0A30A
:100631001209ABF01209AB80E17528001209ABF584
:10064100261209ABF5831209ABF5821209ABF52726
:100651001209ABE52560077528021205DB22752515
:100661000074021209BFE5266012120A7A1209BF4C
:10067100A3D527F6E4C395251209BF2290110FE4F3
:10068100931209BFA3E4931209BF80E875280012F1
:1006910009ABF5291209ABF5271209ABF5261209A9
:1006A100ABF5831209ABF5821209ABE5256007753D
:1006B10028021205DB22E4B52906120C710205DBC2
:1006C10004B52906120C950205DB04B52906120CA6
:1006D100910205DB04B52906120C990205DB120C07
:1006E100C60205DB7528001209ABF5291209ABF525
:1006F100271209ABF5261209ABF5831209ABF58276
:100701001209ABFA1209ABF81209ABF91209ABE500
:100711002560077528021205DB22E4B5290C120DAC
:10072100FD120133500312099F2204B52903020768
:100731005204B52908C211120DC1020752C2121288
:0B0741000DBF20120B1205DB1201336C
:10074C00500312099F2275250074021209BF7526E9
:10075C00047583007582E0120A7A1209BF7582F063
:10076C00120A7A1209BF7582D0752A08120A7A54B5
:10077C0018F582120A7A1209BFA3D52AF67582835C
:10078C00120A7A1209BF758282120A7A1209BF9074
:10079C00110FE4931209BFA3E4931209BF7582D021
:1007AC00120A7A1209BFE41209BFE41209BFE4125B
:1007BC0009BFE41209BF758281120A7AF582120907
:1007CC00BF752601120A7A1209BF1582D527F5E4E6
:1007DC00C395251209BF227528001209ABF5261204
:1007EC0009ABF5831209ABF5821209AB04F529129A
:1007FC0009AB04F5271209ABF52A8006E52A120984
:10080C00DFA3D527F7D529F41209ABE525600375CD
:10081C0028021205DB227528001209ABE5256007BA
:10082C007528021205DB22C211120DC190110FE4C2
:10083C0093F8A3E493F9901104E8F0A3E9F088830A
:10084C008982752605120A7A901106F01205DB22B0
:10085C007528001209ABF5291209ABF5271209AB63
:10086C00E52560067528020205DBE4B5290653244C
:10087C00FB0205DB04B529064324040205DB04B5A1
:10088C002908E4F530F5310205DB853082E5276077
:10089C0009C3E5309527F5825007E5317003020551
:1008AC00DB75250074021209BF7583FDE4931209F0
:1008BC00BF0583E4931209BF0583E4931209BF05B6
:1008CC0083E4931209BF0583E4931209BF0583E403
:1008DC00931209BF0583E4931209BF0583E49312B5
:1008EC0009BF0583E4931209BF0583E4931209BF82
:1008FC000583E4931209BF0583E4931209BF0583B2
:10090C00E4931209BF0583E4931209BF0583E493B2
:10091C001209BF0583E4931209BF0583E4931209FE
:10092C00BF0583E4931209BF0583E4931209BF0545
:10093C0083E4931209BFE4C395251209BF227528DD
:10094C00001209ABF5291209ABE5256006752802E2
:10095C000205DBE4B52907901108F00205DB04B5AC
:09096C002907901108F00205DBD7
:1009750078049005517902E493F7A309D8F978042E
:100985009011047902E7F0A309D8FA0205DB1201F8
:100995003650FB12013F12013C2212013350FB126B
:1009A50001391201452212013350FB12013912019E
:1009B50045C0E02525F525D0E02212013650FB1271
:1009C500013F12013C2525F5252205F8063A068D3D
:0A09D50006E507E30822085C094A62
:100B0500900023E4936402600B740212014EE49397
:100B150064027032A3E493640B6011E493640B6088
:100B25000B740B12014EE493640B701AA3E49364E7
:100B3500B16011E493648D600B74B112014EE493BE
:100B450064B17002C322D322120148120142E58129
:100B550024F9C88683088682A3A3A3A68218A68340
:100B6500C8D0D0D083D082D086D0E0120B760203D5
:100B7500003212013650FB12013F12014B90110B4E
:100B8500E493448045A8F022C0E0C086758600C085
:100B950082C083C0D075D000901108E493701DD039
:100BA500D0D083D082D086D0E0028023C0E0C0863A
:100BB500758600C082C083C0D075D0001201334055
:100BC50003020BDB120139120145B41103020BDBE1
:100BD500B41B03020B4D12013FD0D0D083D082D07D
:040BE50086D0E032A4
:1009DF00AF26BF01028046BF02028036BF030280EE
:1009EF0033BF04028037BF05028009BF0602806053
:1009FF007528FF2212014EFFE493B5070122E52867
:100A0F00700F752803A882A983901106E9F0A3E857
:100A1F00F022F022A882F2220989827F01FEE5826C
:100A2F00B47000400720E715F8EEF622C082C083AD
:100A3F00901113120AF1EEF0D083D08222BF01027F
:100A4F0080E6C082C083F8EE1203C8D083D0822222
:100A5F001392D5120AE1C0E0120AAE0EAF0613DFF1
:100A6F00FDA2D533DEFDFED0E080B5AF26BF01027B
:100A7F00802BBF0202801BBF03028018BF040280BD
:100A8F001CBF05028009BF0602803A7528FF22E4C9
:100A9F009322E022A882E2228982197F01E582B4A3
:100AAF007000400620E710F8E622C082C083901144
:100ABF001393D083D08222BF010280EBC082C08308
:100ACF001203C180ED120AE1120AAE0E13DEFDE42D
:100ADF003322E582FE5407CE6E20E705030303247D
:100AEF0020222582F582E43583F583220582D58283
:060AFF000215831582229E
:100BE900A3E493F8A3E493F9A322C8C583C8C9C5AC
:100BF90082C922E493FB120BF3E493CB120C0F127C
:100C09000BF3EBF0A322120A03A322F528A882A969
:100C190083901104E527F0A3E526F0A3E9F0A3E802
:100C2900F022EA75F006A490117D120AF1E49322EC
:100C39007A000A120C2BB50002B322BA0AF422AECA
:100C490083AF827A0A120C2B601B120BE9C39FFB3C
:100C5900E89E70028009C3EF99FBEE98C37006BB4A
:100C69000200500122DADE22120C487404409C78FA
:100C790000120C39740550931A8A277401F0A3EEF7
:100C8900F0A3EFF0E4020C147D0180067D028002DE
:100C99007D00E527B480107A0A120C2B6002EDF072
:100CA900DAF722E8020C147807B40A0050F5FA0AB8
:100CB900120C2B780660ECEDF0E4020C14E52778B1
:100CC90007B40A0050DD75F006A4FF90118393F56F
:100CD900270FEF93F80FEF93F90FEF93F52688831A
:100CE9008982E4020C1490110F020BEAEC90045172
:100CF9009354FC900D0073020FBD00020D7B00029E
:100D09000D7500020D7000020D6A00020D580002F7
:100D19000D5400020FA700020FAB0002042A007451
:100D2900861203C130E00D74E01203C1F8A985E50C
:100D390084020D4C74E01203C1F8A3A3A3E493F950
:100D4900A3E49328F52CE439F52B22120D5832121D
:100D590003BFF9120AA7F52B120AA7F52CE902031A
:100D6900C620111E12043B8D2B8E2C22201113122A
:100D7900043BEC03C45407C52B54F8452BF52B8DC4
:100D89002C22AE2BAF2C7A0B120C2B120C84E524DF
:100D990054046003020DA87A0B12036B020FE512CB
:100DA90005DBD212C2118003120ED6120DCA7A0ABD
:100DB900120EBA50F322D211E52454046003120E24
:100DC900D6120CEF882B892C120BF3E493FCA3E4C5
:100DD90093FDA3E493FEEC900451935403FA252C5C
:100DE900F52CE4352BF52B120CF5852C82852B83FC
:100DF90012035A22E526600BC000C00112035AD023
:100E090001D000120BF37D00EA6005120C487D0148
:100E19007A0B120C2BED120C86E5245404600302A4
:100E29000E43120369E528600D640370091203A9D2
:100E39001205DBD21222120FE5221205DB533A000A
:100E4900901108E4937009120DC1120EB850F822DE
:100E5900120133505112099FF8E53A053A600B1413
:100E6900601414601814601C8039B81B0122B8047E
:100E790032120993803088261209938029883B12FF
:100E8900099380228882120993853B83E526700D98
:100E990090110FE493120993A3E4938003120A7A41
:100EA900120993533A00120DC1120EB850A2227AB8
:100EB90000120CEF0ABA0C0122120C2BB401F5A393
:100EC900E493B500EFA3E493B501E9B322901109C6
:100ED900E493F532A3E493F53390110CE493F534DC
:100EE900A3E493F535A3E493F536A3E493F537A387
:100EF900E493F538A3E493F539E53354182413F54D
:100F090082E43411F583E493F8A3E493F9A3E49319
:100F1900FAA3E493FBA3E493FCA3E493FDA3E49372
:100F2900FEA3E493FF7583FD853082E532F00583E6
:100F3900E539F00583E8F00583E9F00583EAF00572
:100F490083EBF00583ECF00583EDF00583EEF00506
:100F590083EFF00583E535F00583E534F00583E596
:100F690037F00583E536F00583E533F00583E53889
:100F7900F00583E580F00583E590F00583E5A0F0B1
:100F89000583E5B0F00530E5307003753101227451
:100F990012120C0F7402120C0F7400020C0F8D0642
:100FA9007D037F00EE7E0330E7011F252CF52EEF30
:100FB900352BF52D9011C512035A120BF37804E65F
:100FC900120C0F08DAF9120F9885822F120F981256
:100FD900100DB52F06852E2C852D2B22901108E496
:100FE90093601C120B05500D1203A97464F52812A5
:100FF90005DBD212221205DBD212120B7780051201
:1010090005DBD21212013F120150901182786FE470
:1010190093C6F00582D5820215831582D8F1E4932F
:10102900F8901112E493F5F0901111E493C581F051
:10103900901110E493C0E090110FE493C0E0901177
:101049000EE493C0E090110DE493C0E090110CE41C
:1010590093C0E090110BE493F5A890110AE49390E2
:0D1069001109F5D0E493D083D082D0862207
:1002000000000000000000000000000000000000EE
:1002100000000000000000000000000000000000DE
:1002200000000000000000000000000000000000CE
:1002300000000000000000000000000000000000BE
:1002400000000000000000000000000000000000AE
:10025000000000000000000000000000000000009E
:10026000000000000000000000000000000000008E
:10027000000000000000000000000000000000007E
:10028000000000000000000000000000000000006E
:10029000000000000000000000000000000000005E
:1002A000000000000000000000000000000000004E
:1002B000000000000000000000000000000000003E
:1002C000000000000000000000000000000000002E
:1002D000000000000000000000000000000000001E
:1002E000000000000000000000000000000000000E
:1002F00000000000000000000000000000000000FE
:10030000C086758600C082C083901109F0E5D0A335
:10031000F0E4F5D0C5A8A3F0D0E0A3F0D0E0A3F0BE
:10032000D0E0A3F0D0E0A3F0D0E0A3F0A3E493C525
:1003300081F0E5F0A3F0E8A3F0780008A3E493C609
:10034000F0E8B46FF61201931203A9120CEF120B2E
:10035000F3120AFB120AFB120AFB120BF390110FA5
:10036000E8F0A3E9F0120142227A01120CEFAE018B
:10037000AD00120C2BB4012CC083C082120BE9C358
:10038000EE99FCED98700CBC0200500775280874BB
:1003900001800C7412120BFE7402120BFE7403D057
:1003A00082D083F00ABA0CCA227A0B120C2BB40347
:1003B0000C7401F0120BE9120BFC120BFCDAEC745A
:1003C00081D210F880047881C210901109B8E0023F
:1003D000802AA3B8D0028024A3B8A802801EA3B8A4
:1003E00083028018A3B882028012A3B88602800C10
:1003F000901111B881028004A3B8F008201002F017
:1004000022E4932279E52010027988C0E09011C59A
:10041000E9120A03A982E583C8A3120C0F74221201
:100420000C0F89828883E4D0007374E01203C185C5
:100430002C82852B839378E00203C81203BFC00689
:10044000F9E52C120A27E52B120A27E9D006020348
:10045000C601060F010102010101010101010101B3
:1004600001230A130101020101010101010101013E
:10047000012306150102020101010101010101012F
:1004800001230A1901020201010101010101010117
:10049000011E060203020201010101010101010125
:1004A000011E0A0203020201010101010101010111
:1004B000011E060203020201010101010101010105
:1004C000011E0A02290203020202020202020202C1
:1004D000021E0602250103020202020202020202B9
:1004E00002030A02010202010101010101010101ED
:1004F00001020602010101020202020202020202DC
:1005000002020A0201232323232323232323232359
:1005100023020602010102010101010101010101A1
:1005200001020A0201012301011E1E1E1E1E1E1EC3
:100530001E01060101010201010101010101010188
:1005400001010A0101010201010101010101010191
:0105500001A9
:00000001FF
