:100000000200B3028003000000000002800B000029
:10001000000000028013000000000002801B0000AE
:1000200000000002CA8D000000000002802B0000CA
:10003000000000028033000000000002803B00004E
:10004000000000028043000000000002804B00001E
:10005000000000028053000000000002805B0000EE
:10006000000000028063000000000002806B0000BE
:10007000000000028073000000000002807B00008E
:10008000000000028083000000000002808B00005E
:10009000000000028093000000000002809B00002E
:1000A0000000000280A300000000000280AB0000FE
:1000B000000000120100909F00E0B40021907F95A5
:1000C000E044C3F0907F94E0F0907FAFE054F144BF
:1000D0000AF0907FB27400F0A374FDF0801C90E6EB
:1000E00005E054F1440AF090E6067400F0A374FDB4
:1000F000F090E600E054E74410F002C00002C4555E
:1001000090E668E0FF74FFF0E0B40B09EFF0909F19
:10011000007401F02290E668EFF0909F007400F008
:0101200022BC
:10C0000075860075C83475CBFF75CAD975985A0204
:10C0100000FDA29822A29922E59922F59922C299BF
:10C0200022D29922C29822C2AC22D2AC22F022C0E3
:10C0300084C085C082C083C0E0909F00E0B400133C
:10C04000907FAFE04408F0907FB274C0F0A37472A8
:10C05000F0801190E605E04408F090E60674C0F028
:10C06000A37472F0D0E0D083D082D085D084220037
:03C07000000022AB
:10C4510056332E30758107909F09E47806F0A3D8F2
:10C46100FC7480F0A37400F0A37407F0A3E4F0F56A
:10C471002304F524909F01790078A512C4D2783362
:10C4810012C4D278CC12C4D2E960107A0B7D0012AA
:10C49100CBA2E4F530F531909F08F012C2A912C881
:10C4A1009FB4110AE52312C893F4F52380F0B40177
:10C4B10007E52412C89380E612C4BE80E1F5251475
:10C4C10014540E90C8CFFF93CFA3938F83F582E4CA
:10C4D10073E4936849F9E8F0A322740612C893E55E
:10C4E1002812C893909F047804E49312C893A3D8A8
:10C4F100F8740412C8932275280012C8ABF526609F
:10C501002712C8ABF58312C8ABF58212C8ABF52769
:10C5110012C8AB12C8DFA3D527F612C8ABE5256058
:10C521000375280212C4DB2212C8AB909F0FF0A33F
:10C5310012C8ABF012C8AB80E175280012C8ABF588
:10C541002612C8ABF58312C8ABF58212C8ABF5272A
:10C5510012C8ABE525600775280212C4DB227525D8
:10C5610000740212C8BFE526601212C97A12C8BF50
:10C57100A3D527F6E4C3952512C8BF22909F0FE4E7
:10C581009312C8BFA3E49312C8BF80E875280012B4
:10C59100C8ABF52912C8ABF52712C8ABF52612C8EE
:10C5A100ABF58312C8ABF58212C8ABE52560077500
:10C5B100280212C4DB22E4B5290612CB7102C4DBC6
:10C5C10004B5290612CB9502C4DB04B5290612CBAA
:10C5D1009102C4DB04B5290612CB9902C4DB12CB4C
:10C5E100C602C4DB75280012C8ABF52912C8ABF529
:10C5F1002712C8ABF52612C8ABF58312C8ABF5827A
:10C6010012C8ABFA12C8ABF812C8ABF912C8ABE545
:10C6110025600775280212C4DB22E4B5290C12CC6F
:10C62100FD12C012500312C89F2204B5290302C68D
:10C631005204B52908C21112CCC102C652C212124B
:0BC64100CCBF20120B12C4DB12C01291
:10C64C00500312C89F22752500740212C8BF7526AC
:10C65C00047583007582E012C97A12C8BF7582F026
:10C66C0012C97A12C8BF7582D0752A0812C97A54B9
:10C67C0018F58212C97A12C8BFA3D52AF67582831F
:10C68C0012C97A12C8BF75828212C97A12C8BF90B9
:10C69C009F0FE49312C8BFA3E49312C8BF7582D056
:10C6AC0012C97A12C8BFE412C8BFE412C8BFE412A0
:10C6BC00C8BFE412C8BF75828112C97AF58212C84C
:10C6CC00BF75260112C97A12C8BF1582D527F5E4A9
:10C6DC00C3952512C8BF2275280012C8ABF52612C7
:10C6EC00C8ABF58312C8ABF58212C8AB04F529129E
:10C6FC00C8AB04F52712C8ABF52A8006E52A12C888
:10C70C00DFA3D527F7D529F412C8ABE5256003754F
:10C71C00280212C4DB2275280012C8ABE52560077D
:10C72C0075280212C4DB22C21112CCC1909F0FE4F7
:10C73C0093F8A3E493F9909F04E8F0A3E9F08883BD
:10C74C00898275260512C97A909F06F012C4DB22E5
:10C75C0075280012C8ABF52912C8ABF52712C8AB67
:10C76C00E525600675280202C4DBE4B529065324CE
:10C77C00FB02C4DB04B5290643240402C4DB04B564
:10C78C002908E4F530F53102C4DB853082E52760F9
:10C79C0009C3E5309527F5825007E531700302C4D3
:10C7AC00DB752500740212C8BF75838BE49312C825
:10C7BC00BF0583E49312C8BF0583E49312C8BF0579
:10C7CC0083E49312C8BF0583E49312C8BF0583E4C6
:10C7DC009312C8BF0583E49312C8BF0583E4931278
:10C7EC00C8BF0583E49312C8BF0583E49312C8BF86
:10C7FC000583E49312C8BF0583E49312C8BF058375
:10C80C00E49312C8BF0583E49312C8BF0583E49375
:10C81C0012C8BF0583E49312C8BF0583E49312C802
:10C82C00BF0583E49312C8BF0583E49312C8BF0508
:10C83C0083E49312C8BFE4C3952512C8BF227528A0
:10C84C000012C8ABF52912C8ABE5256006752802A5
:10C85C0002C4DBE4B52907909F08F002C4DB04B5E1
:09C86C002907909F08F002C4DBCB
:10C87500780490C4517902E493F7A309D8F97804B0
:10C88500909F047902E7F0A309D8FA02C4DB12C02D
:10C895001550FB12C01E12C01B2212C01250FB12F3
:10C8A500C01812C0242212C01250FB12C01812C0A8
:10C8B50024C0E02525F525D0E02212C01550FB1235
:10C8C500C01E12C01B2525F52522C4F8C53AC58D05
:0AC8D500C5E5C6E3C722C75CC84AE8
:10CA0500900023E4936402600B740212C02DE4933A
:10CA150064027032A3E49364CA6011E49364CA604B
:10CA25000B74CA12C02DE49364CA701AA3E493640C
:10CA3500B16011E493648D600B74B112C02DE49361
:10CA450064B17002C322D32212C02712C021E5812E
:10CA550024F9C88683088682A3A3A3A68218A68381
:10CA6500C8D0D0D083D082D086D0E012CA7602C298
:10CA7500003212C01550FB12C01E12C02A909F0B27
:10CA8500E493448045A8F022C0E0C086758600C0C6
:10CA950082C083C0D075D000909F08E493701DD0EC
:10CAA500D0D083D082D086D0E0028023C0E0C0867B
:10CAB500758600C082C083C0D075D00012C01240F8
:10CAC5000302CADB12C01812C024B4110302CADB68
:10CAD500B41B0302CA4D12C01ED0D0D083D082D061
:04CAE50086D0E032E5
:10C8DF00AF26BF01028046BF02028036BF0302802F
:10C8EF0033BF04028037BF05028009BF0602806094
:10C8FF007528FF2212C02DFFE493B5070122E5280A
:10C90F00700F752803A882A983909F06E9F0A3E80A
:10C91F00F022F022A882F2220989827F01FEE582AD
:10C92F00B47000400720E715F8EEF622C082C083EE
:10C93F00909F1312C9F1EEF0D083D08222BF010273
:10C94F0080E6C082C083F8EE12C2C8D083D08222A4
:10C95F001392D512C9E1C0E012C9AE0EAF0613DFB4
:10C96F00FDA2D533DEFDFED0E080B5AF26BF0102BC
:10C97F00802BBF0202801BBF03028018BF040280FE
:10C98F001CBF05028009BF0602803A7528FF22E40A
:10C99F009322E022A882E2228982197F01E582B4E4
:10C9AF007000400620E710F8E622C082C083909FF7
:10C9BF001393D083D08222BF010280EBC082C08349
:10C9CF0012C2C180ED12C9E112C9AE0E13DEFDE431
:10C9DF003322E582FE5407CE6E20E70503030324BE
:10C9EF0020222582F582E43583F583220582D582C4
:06C9FF00021583158222DF
:10CAE900A3E493F8A3E493F9A322C8C583C8C9C5ED
:10CAF90082C922E493FB12CAF3E493CB12CB0F123F
:10CB0900CAF3EBF0A32212C903A322F528A882A92C
:10CB190083909F04E527F0A3E526F0A3E9F0A3E8B5
:10CB2900F022EA75F006A4909F7D12C9F1E49322E0
:10CB39007A000A12CB2BB50002B322BA0AF422AE4C
:10CB490083AF827A0A12CB2B601B12CAE9C39FFBFF
:10CB5900E89E70028009C3EF99FBEE98C37006BB8B
:10CB69000200500122DADE2212CB487404409C787C
:10CB79000012CB39740550931A8A277401F0A3EE79
:10CB8900F0A3EFF0E402CB147D0180067D02800260
:10CB99007D00E527B480107A0A12CB2B6002EDF0F4
:10CBA900DAF722E802CB147807B40A0050F5FA0A3A
:10CBB90012CB2B780660ECEDF0E402CB14E5277874
:10CBC90007B40A0050DD75F006A4FF909F8393F522
:10CBD900270FEF93F80FEF93F90FEF93F52688835B
:10CBE9008982E402CB14909F0F02CAEAEC90C351E8
:10CBF9009354FC90CC007302CEBD0002CC7B0002A2
:10CC0900CC750002CC700002CC6A0002CC5800023C
:10CC1900CC540002CEA70002CEAB0002C32A007496
:10CC29008612C2C130E00D74E012C2C1F8A985E5CF
:10CC39008402CC4C74E012C2C1F8A3A3A3E493F913
:10CC4900A3E49328F52CE439F52B2212CC5832129F
:10CC5900C2BFF912C9A7F52B12C9A7F52CE902C25F
:10CC6900C620111E12C33B8D2B8E2C2220111312AC
:10CC7900C33BEC03C45407C52B54F8452BF52B8D46
:10CC89002C22AE2BAF2C7A0B12CB2B12CB84E524A2
:10CC99005404600302CCA87A0B12C26B02CEE512CF
:10CCA900C4DBD212C211800312CDD612CCCA7A0AC1
:10CCB90012CDBA50F322D211E5245404600312CDE7
:10CCC900D612CBEF882B892C12CAF3E493FCA3E488
:10CCD90093FDA3E493FEEC90C351935403FA252CDE
:10CCE900F52CE4352BF52B12CBF5852C82852B837E
:10CCF90012C25A22E526600BC000C00112C25AD0E6
:10CD090001D00012CAF37D00EA600512CB487D010B
:10CD19007A0B12CB2BED12CB86E524540460030267
:10CD2900CD4312C269E528600D6403700912C2A9D6
:10CD390012C4DBD2122212CEE52212C4DB533A000E
:10CD4900909F08E493700912CCC112CDB850F82213
:10CD590012C012505112C89FF8E53A053A600B14F7
:10CD6900601414601814601C8039B81B0122B804BF
:10CD79003212C8938030882612C8938029883B12C2
:10CD8900C8938022888212C893853B83E526700D5B
:10CD9900909F0FE49312C893A3E493800312C97A76
:10CDA90012C893533A0012CCC112CDB850A2227ABC
:10CDB9000012CBEF0ABA0C012212CB2BB401F5A356
:10CDC900E493B500EFA3E493B501E9B322909F0979
:10CDD900E493F532A3E493F533909F0CE493F5348F
:10CDE900A3E493F535A3E493F536A3E493F537A3C8
:10CDF900E493F538A3E493F539E53354182413F58E
:10CE090082E4349FF583E493F8A3E493F9A3E493CC
:10CE1900FAA3E493FBA3E493FCA3E493FDA3E493B3
:10CE2900FEA3E493FF75838B853082E532F0058399
:10CE3900E539F00583E8F00583E9F00583EAF005B3
:10CE490083EBF00583ECF00583EDF00583EEF00547
:10CE590083EFF00583E535F00583E534F00583E5D7
:10CE690037F00583E536F00583E533F00583E538CA
:10CE7900F00583E580F00583E590F00583E5A0F0F2
:10CE89000583E5B0F00530E5307003753101227492
:10CE99001212CB0F74C112CB0F740002CB0F8D0687
:10CEA9007D037F00EE7E0330E7011F252CF52EEF71
:10CEB900352BF52D909FC512C25A12CAF37804E694
:10CEC90012CB0F08DAF912CE9885822F12CE98125A
:10CED900CF0DB52F06852E2C852D2B22909F08E48A
:10CEE90093601C12CA05500D12C2A97464F5281268
:10CEF900C4DBD2122212C4DBD21212CA7780051205
:10CF0900C4DBD21212C01E12C02F909F82786FE428
:10CF190093C6F00582D5820215831582D8F1E49370
:10CF2900F8909F12E493F5F0909F11E493C581F076
:10CF3900909F10E493C0E0909F0FE493C0E0909F0E
:10CF49000EE493C0E0909F0DE493C0E0909F0CE441
:10CF590093C0E0909F0BE493F5A8909F0AE4939007
:0DCF69009F09F5D0E493D083D082D08622BA
:10C10000000000000000000000000000000000002F
:10C11000000000000000000000000000000000001F
:10C12000000000000000000000000000000000000F
:10C1300000000000000000000000000000000000FF
:10C1400000000000000000000000000000000000EF
:10C1500000000000000000000000000000000000DF
:10C1600000000000000000000000000000000000CF
:10C1700000000000000000000000000000000000BF
:10C1800000000000000000000000000000000000AF
:10C19000000000000000000000000000000000009F
:10C1A000000000000000000000000000000000008F
:10C1B000000000000000000000000000000000007F
:10C1C000000000000000000000000000000000006F
:10C1D000000000000000000000000000000000005F
:10C1E000000000000000000000000000000000004F
:10C1F000000000000000000000000000000000003F
:10C20000C086758600C082C083909F09F0E5D0A3E8
:10C21000F0E4F5D0C5A8A3F0D0E0A3F0D0E0A3F0FF
:10C22000D0E0A3F0D0E0A3F0D0E0A3F0A3E493C566
:10C2300081F0E5F0A3F0E8A3F0780008A3E493C64A
:10C24000F0E8B46FF612C07212C2A912CBEF12CA94
:10C25000F312C9FB12C9FB12C9FB12CAF3909F0F5C
:10C26000E8F0A3E9F012C021227A0112CBEFAE016F
:10C27000AD0012CB2BB4012CC083C08212CAE9C31B
:10C28000EE99FCED98700CBC0200500775280874FC
:10C2900001800C741212CAFE74C112CAFE7403D05B
:10C2A00082D083F00ABA0CCA227A0B12CB2BB403C9
:10C2B0000C7401F012CAE912CAFC12CAFCDAEC745E
:10C2C00081D210F880047881C210909F09B8E002F2
:10C2D000802AA3B8D0028024A3B8A802801EA3B8E5
:10C2E00083028018A3B882028012A3B88602800C51
:10C2F000909F11B881028004A3B8F008201002F0CA
:10C3000022E4932279E52010027988C0E0909FC54D
:10C31000E912C903A982E583C8A312CB0F742212C4
:10C32000CB0F89828883E4D0007374E012C2C18588
:10C330002C82852B839378E002C2C812C2BFC0064C
:10C34000F9E52C12C927E52B12C927E9D00602C24C
:10C35000C601060F010102010101010101010101F4
:10C3600001230A130101020101010101010101017F
:10C370000123061501020201010101010101010170
:10C3800001230A1901020201010101010101010158
:10C39000011E060203020201010101010101010166
:10C3A000011E0A0203020201010101010101010152
:10C3B000011E060203020201010101010101010146
:10C3C000011E0A0229020302020202020202020202
:10C3D000021E0602250103020202020202020202FA
:10C3E00002030A020102020101010101010101012E
:10C3F000010206020101010202020202020202021D
:10C4000002020A020123232323232323232323239A
:10C4100023020602010102010101010101010101E2
:10C4200001020A0201012301011E1E1E1E1E1E1E04
:10C430001E010601010102010101010101010101C9
:10C4400001010A01010102010101010101010101D2
:01C4500001EA
:00000001FF
